:020000040800F2
:200000000050002021020008270200082B0200089D020008A1020008E9020008000000009A
:2000200000000000000000000000000031030008350300080000000039030008B90C000833
:200040004D0300084D0300084D0300084D0300084D0300084D0300084D0300084D030008E0
:200060004D0300084D0300084D0300084D0300084D0300084D0300084D0300084D030008C0
:200080004D0300084D0300084D0300084D0300084D0300084D0300084D0300084D030008A0
:2000A0004D0300084D0300084D0300084D0300084D0300084D0300084D0300084D03000880
:2000C0004D0300084D0300084D0300084D0300084D0300084D0300084D0300084D03000860
:2000E0004D0300084D0300084D0300080000000000000000000000000000000000000000F8
:2001000000000000000000005FF808F100B583B000F0E0F9304B314A1360314A1360314B0B
:20012000314A32498B4204D21168196004330432F7E72A4B1A682E4B9A4200D0FEE7284B75
:200140001A682C4B9A42F9D1234B2B4A13602B4A13602B4B02E000221A600433294A93424F
:20016000F9D3254B1B6813B9244B1B6803B1FEE700F0BCF9694601A800F02CF9224C234B7B
:20018000E41AA4100025AC4214DC214C214BE41AA4100025AC4213DC0099019800F042FEBB
:2001A00005461D4C1D4BE41AA410002C0EDC284600F0E2F8154B53F8253098470135E2E745
:2001C000144B53F8253098470135E3E7013C134B53F824309847E8E7BABADECA000000201D
:2001E0009000002000000020582200089400002078563412325476989400002094010020E8
:2002000094000020980100207803000878030008780300087803000878030008780300085F
:2002200008B5FFF773FF00BEFEE71EF0040F0CBFEFF30880EFF309807146414A10472DE986
:20024000F04182B004468846124B5E6B9F6B9D6A1B6B13F0020F03D00E4BDB6A002B0CDBCF
:200260000D4800F0DBF8CDF800803B4632462946204600F03FF900BEFEE74BF6AB6100F04B
:20028000B3F90028ECD0034B4FF00042DA6202B0BDE8F08100ED00E06820000800BEFEE7FB
:2002A0001EF0040F0CBFEFF30880EFF309807146244A10472DE9F04182B004468846084B1D
:2002C0005E6B9F6B9D6A074800F0A8F8CDF800803B4632462946204600F00CF900BEFEE7BA
:2002E00000ED00E0782000081EF0040F0CBFEFF30880EFF309807146134A10472DE9F0411E
:2003000082B004468846084B5E6B9F6B9D6A074800F084F8CDF800803B4632462946204698
:2003200000F0E8F800BEFEE700ED00E08420000800BEFEE700BEFEE700BEFEE77047000031
:200340003F020008B5020008FD02000800BEFEE75822000800000020940000205822000813
:20036000000000000000000094000020980100200000000000000000FEE7000008B5034823
:2003800000F064F80120FFF7F7FF00BFF81E000808B503460C4A12685AB10B4A1068033343
:2003A00023F003030344094A934206D8064A136008BD054A06491160EFE701F065F90C23EC
:2003C00003604FF0FF30F3E798000020004C00209801002001230360014B0B60704700BFE1
:2003E0000400002000B583B00C461946134652B1074A53B10193009223460246054800F07B
:200400000DF8FFF7BBFF044AF3E7034BF2E700BF0C1F00081C1F0008342100080FB400B5CE
:2004200083B004AB53F8042B01938021064801F065F9002803DD0146034800F047F803B012
:200440005DF804EB04B07047A000002010B5044601F020F90146204600F038F801210248DB
:2004600000F034F810BD00BFE82000082DE9F04385B004460F4643560BB10E461EE00425D7
:2004800028462146ABBE0446384605B0BDE8F08314F9011B04AA1A4402F8101C0133AB420D
:2004A000F6D304AA1344002203F8102C4FF00408E94640464946ABBE8046761B002EE3D0E5
:2004C0003546102E28BF10250023E8E708B5FFF7CDFF08BD08B500F0FDF8024A024B9A60DC
:2004E00008BD00BF0000000800ED00E008B500F019F908BDF8B504460D4617461E462748A5
:20050000FFF78CFF21682648FFF788FF61682548FFF784FFA1682448FFF780FFE168234899
:20052000FFF77CFF21692248FFF778FF61692148FFF774FFA1692048FFF770FFE1691F48C5
:20054000FFF76CFF1E48FFF769FF29461D48FFF765FF1D4CE16A1D48FFF760FF216B1C48EA
:20056000FFF75CFFE16B1B48FFF758FF15F0800F0AD115F4004F0CD11748FFF74FFF069948
:200580001648FFF74BFFF8BD39461548FFF746FFEFE731461348FFF741FFEDE74C1F0008CC
:2005A0005C1F00086C1F00087C1F00088C1F00089C1F0008AC1F0008BC1F0008CC1F000863
:2005C000DC1F0008E81F000800ED00E0F81F000808200008182000084820000850200008C5
:2005E000282000083820000883691A888A4201D0002070470268033A012A03D80233836183
:20060000012070470020704782B00023019300932C4A136843F4803313602A4B1B6803F472
:2006200000330093019B01330193009B1BB9019BB3F5A06FF1D1234B1B6813F4003F06D0FF
:2006400001230093009B012B04D002B0704700230093F7E71C4B1A6842F010021A601A6822
:2006600022F003021A601A6842F002021A60A3F580535A685A605A685A605A6842F480627A
:200680005A605A6822F47C125A605A6842F4E8125A601A6842F080721A600A4B1B6813F0D9
:2006A000007FFAD0074B5A6822F003025A605A6842F002025A60034B5B6803F00C03082B14
:2006C000F9D1C2E7001002400020024008B5FFF79BFF08BD08B5104B1A6842F001021A6098
:2006E00059680E4A0A405A601A6822F0847222F480321A601A6822F480221A605A6822F485
:20070000FE025A604FF41F029A60FFF7DFFF044B4FF000629A6008BD001002400000FFF8F5
:2007200000ED00E01F4B5B6803F00C03042B15D0082B17D01BB11C4B1C4A1A6002E01A4B35
:200740001A4A1A60174B5B68C3F30313184AD35CDAB215490B68D3400B607047124B134AED
:200760001A60EFE70F4A53685268C3F38343023312F4803F0AD00B4A526812F4003F0BD0DC
:200780000C4A02FB03F3084A1360DBE7094A02FB03F3054A1360D5E7044A02FB03F3024A38
:2007A0001360CFE7001002401C00002000127A000C00002000093D00002304E0034A3021DF
:2007C000D1540133DBB2632BF8D9704730010020002288B130B4094BA3FB0043DB0803EB87
:2007E00083056C00001B30308854D8B20132D2B20028F0D130BC7047704700BFCDCCCCCC3A
:2008000070B5044600F046FFC6B2002308E0E156C2B2013AD21AA556E554A1540133DBB2F5
:20082000B3EB560FF3D370BD70B5064600F032FFC5B2002406E0315789B2044800F0B0FA06
:200840000134E4B2AC42F6D370BD00BF0044004010B582B000248DF8074008E00DF10701D1
:20086000064800F0A3FA064B18550134E4B29DF80730052BF2D102B010BD00BF0044004093
:200880003001002008B50E490E4800F025FA0E48FFF7CAFF40F6B83000F0FAF9FFF78CFFF7
:2008A0000A48FFF7C1FF40F6B83000F0F1F90848FFF7BAFF40F6B83000F0EAF908BD00BFC4
:2008C000200000200044004030210008382100084821000810B5FFF76FFF0D48FFF7A4FF12
:2008E0000C4C2046FFF7A0FF0B48FFF79DFF0B48FFF79AFF2046FFF797FF0948FFF794FF12
:200900000848FFF791FF4FF4FA5000F0C1F910BD94200008A4200008A8200008D0200008AD
:20092000B0200008BC20000830B583B0FFF744FF2648FFF779FF264C2046FFF775FF25481F
:20094000FFF772FF2046FFF76FFF2348FFF76CFFFFF77EFFFFF730FF204D284600F09AFE9F
:20096000C0B2063001A9C0B2FFF732FF01A8FFF747FF1B48FFF758FF01A8FFF755FF194C9F
:200980002046FFF751FFFFF763FFFFF715FF4FF47A6000F07DF91448FFF746FF1348FFF7DE
:2009A00043FF2846FFF740FF2046FFF73DFFFFF74FFF0F4B93F82540303CE4B24FF4FA608D
:2009C00000F066F9204603B030BD00BFC0200008A4200008D4200008E4200008EC20000833
:2009E0001C21000854210008282100082C2100083001002030B412F0030F79D107293AD8BA
:200A000004688B000F259D4024EA05040460142A7DD8DFE802F00B7C7C7C117C7C7C247C63
:200A20007C7C7C7C7C7C7C7C7C7C1700016802FA03F30B4303606AE0016802FA03F30B43C8
:200A4000036064E00268082404FA03F3134303604369012202FA01F11943416157E004684E
:200A600002FA03F3234303600369012202FA01F1194301614BE04468A1F108039B000F253D
:200A80009D4024EA05044460142A40D8DFE802F00B3F3F3F113F3F3F243F3F3F3F3F3F3F3C
:200AA0003F3F3F3F1700416802FA03F30B4343602DE0416802FA03F30B43436027E042684D
:200AC000082404FA03F3134343604369012202FA01F1194341611AE0446802FA03F3234344
:200AE00043600369012202FA01F1194301610EE007290ED94368083989000F248C4023EA92
:200B000004034360436802FA01F11943416030BC704703688C000F21A14023EA0103036076
:200B2000036802FA04F119430160F0E742B1012A0CD10369012202FA01F1194301617047D8
:200B40004369012202FA01F11943416170470000114B1A6822F4E0221A601A6842F4803249
:200B60001A600D4B1B6813F4003FFAD00A4B5A6822F003025A605A6842F001025A605A68B5
:200B800022F47F5222F030025A605A685A601A6842F400221A6070470010024008B5024692
:200BA00008B302281FD003281DD004281BD0052819D0062817D0072815D0082813D00928AF
:200BC00011D00A280FD00B280DD00C280BD00D2809D00E2807D00F2805D0132803D0142893
:200BE00001D0152806D106498869012393401843886108BD034B044A5F210448FFF7F2FB85
:200C000000100240BC210008E42100088421000808B508281BD90B2819D00E2817D00F2892
:200C200015D0112813D0122811D013280FD014280DD015280BD0162809D0172807D01928DF
:200C400005D01B2803D01C2801D01D2807D10749CB69012202FA00F01843C86108BD044B4C
:200C6000044A67210448FFF7BDFB00BF00100240942100080422000884210008034B1A682B
:200C800002F007021A6003221A60704710E000E04FF47A7303FB00F0064B5860054B1B68BF
:200CA00013F4803FFAD0034A136823F480331360704700BF10E000E008B5054B1B682BB1ED
:200CC0009847044A136823F48033136008BD00BF2001002010E000E02DE9F84304460D46AC
:200CE000C36823F41043C360C3680A7943EA0233C360036923F44053036103698A7943EAF3
:200D00000233036108680301214EB6FBF3F6B7B200F00EFA00221F4B00F084FA02460B46C9
:200D200019A1D1E9000100F0A7FB80468946384600F0FEF902460B464046494600F0BAF862
:200D40000022144B00F06EFA0022134B00F0B4F800F07AFCC0B2114B03EA06163043A060EE
:200D6000E36823F00C03E360E268297AEB79DB0043EA81031343E360E36843F40053E36035
:200D8000BDE8F883AFF300800000000080845E4100127A00000030400000E03FF0FF0F0055
:200DA0004160036813F0400FFBD0704710B4044600230B70226812F0200F04D1174A9342E1
:200DC00001D80133F6E7164A934218D0606880B2236823F020032360236813F0010F12D14D
:200DE000236813F0020F12D1236813F0040F11D1236813F0080F08D001230B7005E00523C5
:200E00000B70002001E004230B7010BC704703230B70FAE702230B70F7E700BFDF930400FC
:200E2000E093040010B5FFF793FE0220FFF7B6FE0320FFF7B3FE0020FFF7B0FE1120FFF76E
:200E4000E7FE184C092202212046FFF7D3FD042203212046FFF7CEFD04F58064022200213C
:200E60002046FFF7C7FD012200212046FFF75EFEFFF704FFFFF706FDFFF72CFD01E0022C36
:200E80000AD0FFF751FD04460128F8D1002211460548FFF74BFEF2E7012200210248FFF796
:200EA00045FEEEE700080140000C014081F0004102E000BF83F0004330B54FEA41044FEADF
:200EC000430594EA050F08BF90EA020F1FBF54EA000C55EA020C7FEA645C7FEA655C00F02E
:200EE000E2804FEA5454D4EB5555B8BF6D420CDD2C4480EA020281EA030382EA000083EA0F
:200F0000010180EA020281EA0303362D88BF30BD11F0004F4FEA01314FF4801C4CEA113147
:200F200002D0404261EB410113F0004F4FEA03334CEA133302D0524263EB430394EA050F06
:200F400000F0A780A4F10104D5F1200E0DDB02FA0EFC22FA05F2801841F1000103FA0EF223
:200F6000801843FA05F359410EE0A5F120050EF1200E012A03FA0EFC28BF4CF0020C43FA94
:200F800005F3C01851EBE37101F0004507D54FF0000EDCF1000C7EEB00006EEB0101B1F54F
:200FA000801F1BD3B1F5001F0CD349085FEA30004FEA3C0C04F101044FEA445212F5800F56
:200FC00080F09A80BCF1004F08BF5FEA500C50F1000041EB045141EA050130BD5FEA4C0C9E
:200FE000404141EB010111F4801FA4F10104E9D191F0000F04BF01460020B1FA81F308BFAA
:201000002033A3F10B03B3F120020CDA0C3208DD02F1140CC2F10C0201FA0CF021FA02F133
:201020000CE002F11402D8BFC2F1200C01FA02F120FA0CFCDCBF41EA0C019040E41AA2BF33
:2010400001EB0451294330BD6FEA04041F3C1CDA0C340EDC04F11404C4F1200220FA04F028
:2010600001FA02F340EA030021FA04F345EA030130BDC4F10C04C4F1200220FA02F001FA7E
:2010800004F340EA0300294630BD21FA04F0294630BD94F0000F83F4801306BF81F48011FD
:2010A0000134013D4EE77FEA645C18BF7FEA655C29D094EA050F08BF90EA020F05D054EA6E
:2010C000000C04BF1946104630BD91EA030F1EBF0021002030BD5FEA545C05D1400049416E
:2010E00028BF41F0004130BD14F580043CBF01F5801130BD01F0004545F0FE4141F470015E
:201100004FF0000030BD7FEA645C1ABF194610467FEA655C1CBF0B46024650EA013406BF1A
:2011200052EA033591EA030F41F4002130BD00BF90F0000F04BF0021704730B54FF4806476
:2011400004F132044FF000054FF0000150E700BF90F0000F04BF0021704730B54FF48064B4
:2011600004F1320410F0004548BF40424FF000013EE700BF42004FEAE2014FEA31014FEA50
:2011800002701FBF12F07F4393F07F4F81F06051704732F07F4208BF704793F07F4F04BF9C
:2011A00041F40021704730B54FF4607401F0004521F000411CE700BF50EA010208BF704721
:2011C00030B54FF000050AE050EA010208BF704730B511F0004502D5404261EB41014FF4EC
:2011E000806404F132045FEA915C3FF4D8AE4FF003025FEADC0C18BF03325FEADC0C18BF68
:20120000033202EBDC02C2F1200300FA03FC20FA02F001FA03FE40EA0E0021FA02F1144459
:20122000BDE600BF70B54FF0FF0C4CF4E06C1CEA11541DBF1CEA135594EA0C0F95EA0C0F69
:2012400000F0DEF82C4481EA030621EA4C5123EA4C5350EA013518BF52EA033541F480110F
:2012600043F4801338D0A0FB02CE4FF00005E1FB02E506F00042E0FB03E54FF00006E1FB0E
:2012800003569CF0000F18BF4EF0010EA4F1FF04B6F5007F64F5407404D25FEA4E0E6D413E
:2012A00046EB060642EAC62141EA55514FEAC52040EA5E504FEACE2EB4F1FD0C88BFBCF53C
:2012C000E06F1ED8BEF1004F08BF5FEA500E50F1000041EB045170BD06F0004646EA010100
:2012E00040EA020081EA0301B4EB5C04C2BFD4EB0C0541EA045170BD41F480114FF0000E43
:20130000013C00F3AB8014F1360FDEBF002001F0004170BDC4F10004203C35DA0C341BDCB1
:2013200004F11404C4F1200500FA05F320FA04F001FA05F240EA020001F0004221F0004123
:2013400010EBD37021FA04F642EB06015EEA430E08BF20EAD37070BDC4F10C04C4F120058D
:2013600000FA04F320FA05F001FA04F240EA020001F0004110EBD37041F100015EEA430E14
:2013800008BF20EAD37070BDC4F1200500FA05F24EEA020E20FA04F301FA05F243EA0203C4
:2013A00021FA04F001F0004121FA04F220EA020000EBD3705EEA430E08BF20EAD37070BDC7
:2013C00094F0000F0FD101F00046400041EB010111F4801F08BF013CF7D041EA060195F0CF
:2013E000000F18BF704703F00046520043EB030313F4801F08BF013DF7D043EA0603704732
:2014000094EA0C0F0CEA135518BF95EA0C0F0CD050EA410618BF52EA4306D1D181EA03019A
:2014200001F000414FF0000070BD50EA410606BF1046194652EA430619D094EA0C0F02D139
:2014400050EA013613D195EA0C0F05D152EA03361CBF104619460AD181EA030101F0004146
:2014600041F0FE4141F470014FF0000070BD41F0FE4141F4780170BD70B54FF0FF0C4CF4F0
:20148000E06C1CEA11541DBF1CEA135594EA0C0F95EA0C0F00F0A7F8A4EB050481EA030E75
:2014A00052EA03354FEA013100F088804FEA03334FF0805545EA131343EA12634FEA02227E
:2014C00045EA111545EA10654FEA00260EF000419D4208BF964244F1FD0404F5407402D240
:2014E0005B084FEA3202B61A65EB03055B084FEA32024FF480104FF4002CB6EB020E75EBD1
:18150000030E22BFB61A754640EA0C005B084FEA3202B6EB020E75EB3F
:00000001FF
